{
  "address": "0xBcE0000AcEf69ca43747fb546D753ba3F5443bc7",
  "abi": [
    {
      "constant": true,
      "inputs": [
        {
          "name": "account",
          "type": "address"
        },
        {
          "name": "id",
          "type": "uint256"
        }
      ],
      "name": "balanceOf",
      "outputs": [
        {
          "name": "",
          "type": "uint256"
        }
      ],
      "payable": false,
      "stateMutability": "view",
      "type": "function"
    },
    {
      "constant": true,
      "inputs": [
        {
          "name": "interfaceId",
          "type": "bytes4"
        }
      ],
      "name": "supportsInterface",
      "outputs": [
        {
          "name": "",
          "type": "bool"
        }
      ],
      "payable": false,
      "stateMutability": "view",
      "type": "function"
    },
    {
      "constant": false,
      "inputs": [
        {
          "name": "newuri",
          "type": "string"
        }
      ],
      "name": "setURI",
      "outputs": [],
      "payable": false,
      "stateMutability": "nonpayable",
      "type": "function"
    },
    {
      "constant": true,
      "inputs": [
        {
          "name": "id",
          "type": "uint256"
        }
      ],
      "name": "uri",
      "outputs": [
        {
          "name": "",
          "type": "string"
        }
      ],
      "payable": false,
      "stateMutability": "view",
      "type": "function"
    },
    {
      "constant": true,
      "inputs": [
        {
          "name": "account",
          "type": "address"
        }
      ],
      "name": "isApprovedForMint",
      "outputs": [
        {
          "name": "",
          "type": "bool"
        }
      ],
      "payable": false,
      "stateMutability": "view",
      "type": "function"
    },
    {
      "constant": false,
      "inputs": [
        {
          "name": "from",
          "type": "address"
        },
        {
          "name": "to",
          "type": "address"
        },
        {
          "name": "ids",
          "type": "uint256[]"
        },
        {
          "name": "amounts",
          "type": "uint256[]"
        },
        {
          "name": "data",
          "type": "bytes"
        }
      ],
      "name": "safeBatchTransferFrom",
      "outputs": [],
      "payable": false,
      "stateMutability": "nonpayable",
      "type": "function"
    },
    {
      "constant": true,
      "inputs": [
        {
          "name": "accounts",
          "type": "address[]"
        },
        {
          "name": "ids",
          "type": "uint256[]"
        }
      ],
      "name": "balanceOfBatch",
      "outputs": [
        {
          "name": "",
          "type": "uint256[]"
        }
      ],
      "payable": false,
      "stateMutability": "view",
      "type": "function"
    },
    {
      "constant": false,
      "inputs": [],
      "name": "renounceOwnership",
      "outputs": [],
      "payable": false,
      "stateMutability": "nonpayable",
      "type": "function"
    },
    {
      "constant": true,
      "inputs": [],
      "name": "owner",
      "outputs": [
        {
          "name": "",
          "type": "address"
        }
      ],
      "payable": false,
      "stateMutability": "view",
      "type": "function"
    },
    {
      "constant": false,
      "inputs": [
        {
          "name": "operator",
          "type": "address"
        },
        {
          "name": "approved",
          "type": "bool"
        }
      ],
      "name": "setApprovalForAll",
      "outputs": [],
      "payable": false,
      "stateMutability": "nonpayable",
      "type": "function"
    },
    {
      "constant": false,
      "inputs": [
        {
          "name": "account",
          "type": "address"
        },
        {
          "name": "id",
          "type": "uint256"
        },
        {
          "name": "amount",
          "type": "uint256"
        },
        {
          "name": "ipfsHash",
          "type": "string"
        }
      ],
      "name": "mint",
      "outputs": [],
      "payable": false,
      "stateMutability": "nonpayable",
      "type": "function"
    },
    {
      "constant": true,
      "inputs": [
        {
          "name": "id",
          "type": "uint256"
        }
      ],
      "name": "uriHash",
      "outputs": [
        {
          "name": "",
          "type": "string"
        }
      ],
      "payable": false,
      "stateMutability": "view",
      "type": "function"
    },
    {
      "constant": true,
      "inputs": [
        {
          "name": "account",
          "type": "address"
        },
        {
          "name": "operator",
          "type": "address"
        }
      ],
      "name": "isApprovedForAll",
      "outputs": [
        {
          "name": "",
          "type": "bool"
        }
      ],
      "payable": false,
      "stateMutability": "view",
      "type": "function"
    },
    {
      "constant": false,
      "inputs": [
        {
          "name": "operator",
          "type": "address"
        },
        {
          "name": "approved",
          "type": "bool"
        }
      ],
      "name": "setApprovalForMint",
      "outputs": [],
      "payable": false,
      "stateMutability": "nonpayable",
      "type": "function"
    },
    {
      "constant": false,
      "inputs": [
        {
          "name": "from",
          "type": "address"
        },
        {
          "name": "to",
          "type": "address"
        },
        {
          "name": "id",
          "type": "uint256"
        },
        {
          "name": "amount",
          "type": "uint256"
        },
        {
          "name": "data",
          "type": "bytes"
        }
      ],
      "name": "safeTransferFrom",
      "outputs": [],
      "payable": false,
      "stateMutability": "nonpayable",
      "type": "function"
    },
    {
      "constant": false,
      "inputs": [
        {
          "name": "newOwner",
          "type": "address"
        }
      ],
      "name": "transferOwnership",
      "outputs": [],
      "payable": false,
      "stateMutability": "nonpayable",
      "type": "function"
    },
    {
      "constant": false,
      "inputs": [
        {
          "name": "account",
          "type": "address"
        },
        {
          "name": "id",
          "type": "uint256"
        },
        {
          "name": "amount",
          "type": "uint256"
        }
      ],
      "name": "burn",
      "outputs": [],
      "payable": false,
      "stateMutability": "nonpayable",
      "type": "function"
    },
    {
      "inputs": [
        {
          "name": "uri_",
          "type": "string"
        }
      ],
      "payable": false,
      "stateMutability": "nonpayable",
      "type": "constructor"
    },
    {
      "anonymous": false,
      "inputs": [
        {
          "indexed": true,
          "name": "operator",
          "type": "address"
        },
        {
          "indexed": true,
          "name": "from",
          "type": "address"
        },
        {
          "indexed": true,
          "name": "to",
          "type": "address"
        },
        {
          "indexed": false,
          "name": "id",
          "type": "uint256"
        },
        {
          "indexed": false,
          "name": "value",
          "type": "uint256"
        }
      ],
      "name": "TransferSingle",
      "type": "event"
    },
    {
      "anonymous": false,
      "inputs": [
        {
          "indexed": true,
          "name": "operator",
          "type": "address"
        },
        {
          "indexed": true,
          "name": "from",
          "type": "address"
        },
        {
          "indexed": true,
          "name": "to",
          "type": "address"
        },
        {
          "indexed": false,
          "name": "ids",
          "type": "uint256[]"
        },
        {
          "indexed": false,
          "name": "values",
          "type": "uint256[]"
        }
      ],
      "name": "TransferBatch",
      "type": "event"
    },
    {
      "anonymous": false,
      "inputs": [
        {
          "indexed": true,
          "name": "account",
          "type": "address"
        },
        {
          "indexed": true,
          "name": "operator",
          "type": "address"
        },
        {
          "indexed": false,
          "name": "approved",
          "type": "bool"
        }
      ],
      "name": "ApprovalForAll",
      "type": "event"
    },
    {
      "anonymous": false,
      "inputs": [
        {
          "indexed": false,
          "name": "value",
          "type": "string"
        },
        {
          "indexed": true,
          "name": "id",
          "type": "uint256"
        }
      ],
      "name": "URI",
      "type": "event"
    },
    {
      "anonymous": false,
      "inputs": [
        {
          "indexed": true,
          "name": "previousOwner",
          "type": "address"
        },
        {
          "indexed": true,
          "name": "newOwner",
          "type": "address"
        }
      ],
      "name": "OwnershipTransferred",
      "type": "event"
    }
  ],
  "transactionHash": "0xa6de6467e42a544c6bd67b2c6860b89a93101140c5dea6349746af99a04c0b75",
  "args": [
    "http://example.com/"
  ],
  "solcInputHash": "f3d95c7f784430fa17fea705bf8379a2",
  "bytecode": "0x60806040523480156200001157600080fd5b506040516200227a3803806200227a833981018060405260208110156200003757600080fd5b8101908080516401000000008111156200005057600080fd5b820160208101848111156200006457600080fd5b81516401000000008111828201871017156200007f57600080fd5b50509291905050506000620000a2620001a3640100000000026401000000009004565b60008054600160a060020a031916600160a060020a0383169081178255604051929350917f8be0079c531659141344cd1fd0a4f28419497f9722a3daafe3b4186f6b6457e0908290a350620001207f01ffc9a700000000000000000000000000000000000000000000000000000000640100000000620001a8810204565b62000134816401000000006200027a810204565b620001687fd9b67a2600000000000000000000000000000000000000000000000000000000640100000000620001a8810204565b6200019c7f0e89341c00000000000000000000000000000000000000000000000000000000640100000000620001a8810204565b5062000335565b335b90565b7fffffffff0000000000000000000000000000000000000000000000000000000080821614156200023a57604080517f08c379a000000000000000000000000000000000000000000000000000000000815260206004820152601c60248201527f4552433136353a20696e76616c696420696e7465726661636520696400000000604482015290519081900360640190fd5b7fffffffff00000000000000000000000000000000000000000000000000000000166000908152600160208190526040909120805460ff19169091179055565b80516200028f90600690602084019062000293565b5050565b828054600181600116156101000203166002900490600052602060002090601f016020900481019282601f10620002d657805160ff191683800117855562000306565b8280016001018555821562000306579182015b8281111562000306578251825591602001919060010190620002e9565b506200031492915062000318565b5090565b620001a591905b808211156200031457600081556001016200031f565b611f3580620003456000396000f3fe6080604052600436106100ef5763ffffffff7c0100000000000000000000000000000000000000000000000000000000600035041662fdd58e81146100f457806301ffc9a71461013f57806302fe53051461019c5780630e89341c146102515780631c3e28a9146102f05780632eb2c2d6146103235780634e1273f4146104f7578063715018a61461067b5780638da5cb5b14610690578063a22cb465146106c1578063bb7fde71146106fc578063e80ec360146107cb578063e985e9c5146107f5578063ebcf0e1214610830578063f242432a1461086b578063f2fde38b14610943578063f5298aca14610976575b600080fd5b34801561010057600080fd5b5061012d6004803603604081101561011757600080fd5b50600160a060020a0381351690602001356109b5565b60408051918252519081900360200190f35b34801561014b57600080fd5b506101886004803603602081101561016257600080fd5b50357bffffffffffffffffffffffffffffffffffffffffffffffffffffffff1916610a65565b604080519115158252519081900360200190f35b3480156101a857600080fd5b5061024f600480360360208110156101bf57600080fd5b8101906020810181356401000000008111156101da57600080fd5b8201836020820111156101ec57600080fd5b8035906020019184600183028401116401000000008311171561020e57600080fd5b91908080601f016020809104026020016040519081016040528093929190818152602001838380828437600092019190915250929550610a99945050505050565b005b34801561025d57600080fd5b5061027b6004803603602081101561027457600080fd5b5035610b0a565b6040805160208082528351818301528351919283929083019185019080838360005b838110156102b557818101518382015260200161029d565b50505050905090810190601f1680156102e25780820380516001836020036101000a031916815260200191505b509250505060405180910390f35b3480156102fc57600080fd5b506101886004803603602081101561031357600080fd5b5035600160a060020a0316610bf3565b34801561032f57600080fd5b5061024f600480360360a081101561034657600080fd5b600160a060020a03823581169260208101359091169181019060608101604082013564010000000081111561037a57600080fd5b82018360208201111561038c57600080fd5b803590602001918460208302840111640100000000831117156103ae57600080fd5b91908080602002602001604051908101604052809392919081815260200183836020028082843760009201919091525092959493602081019350359150506401000000008111156103fe57600080fd5b82018360208201111561041057600080fd5b8035906020019184602083028401116401000000008311171561043257600080fd5b919080806020026020016040519081016040528093929190818152602001838360200280828437600092019190915250929594936020810193503591505064010000000081111561048257600080fd5b82018360208201111561049457600080fd5b803590602001918460018302840111640100000000831117156104b657600080fd5b91908080601f016020809104026020016040519081016040528093929190818152602001838380828437600092019190915250929550610c11945050505050565b34801561050357600080fd5b5061062b6004803603604081101561051a57600080fd5b81019060208101813564010000000081111561053557600080fd5b82018360208201111561054757600080fd5b8035906020019184602083028401116401000000008311171561056957600080fd5b91908080602002602001604051908101604052809392919081815260200183836020028082843760009201919091525092959493602081019350359150506401000000008111156105b957600080fd5b8201836020820111156105cb57600080fd5b803590602001918460208302840111640100000000831117156105ed57600080fd5b919080806020026020016040519081016040528093929190818152602001838360200280828437600092019190915250929550610ff5945050505050565b60408051602080825283518183015283519192839290830191858101910280838360005b8381101561066757818101518382015260200161064f565b505050509050019250505060405180910390f35b34801561068757600080fd5b5061024f611113565b34801561069c57600080fd5b506106a56111cf565b60408051600160a060020a039092168252519081900360200190f35b3480156106cd57600080fd5b5061024f600480360360408110156106e457600080fd5b50600160a060020a03813516906020013515156111df565b34801561070857600080fd5b5061024f6004803603608081101561071f57600080fd5b600160a060020a03823516916020810135916040820135919081019060808101606082013564010000000081111561075657600080fd5b82018360208201111561076857600080fd5b8035906020019184600183028401116401000000008311171561078a57600080fd5b91908080601f01602080910402602001604051908101604052809392919081815260200183838082843760009201919091525092955061130d945050505050565b3480156107d757600080fd5b5061027b600480360360208110156107ee57600080fd5b5035611404565b34801561080157600080fd5b506101886004803603604081101561081857600080fd5b50600160a060020a0381358116916020013516611491565b34801561083c57600080fd5b5061024f6004803603604081101561085357600080fd5b50600160a060020a03813516906020013515156114bf565b34801561087757600080fd5b5061024f600480360360a081101561088e57600080fd5b600160a060020a03823581169260208101359091169160408201359160608101359181019060a0810160808201356401000000008111156108ce57600080fd5b8201836020820111156108e057600080fd5b8035906020019184600183028401116401000000008311171561090257600080fd5b91908080601f01602080910402602001604051908101604052809392919081815260200183838082843760009201919091525092955061154f945050505050565b34801561094f57600080fd5b5061024f6004803603602081101561096657600080fd5b5035600160a060020a03166117dd565b34801561098257600080fd5b5061024f6004803603606081101561099957600080fd5b50600160a060020a038135169060208101359060400135611930565b6000600160a060020a0383161515610a3d576040805160e560020a62461bcd02815260206004820152602b60248201527f455243313135353a2062616c616e636520717565727920666f7220746865207a60448201527f65726f2061646472657373000000000000000000000000000000000000000000606482015290519081900360840190fd5b506000908152600260209081526040808320600160a060020a03949094168352929052205490565b7bffffffffffffffffffffffffffffffffffffffffffffffffffffffff191660009081526001602052604090205460ff1690565b610aa16119f0565b600160a060020a0316610ab26111cf565b600160a060020a031614610afe576040805160e560020a62461bcd0281526020600482018190526024820152600080516020611eea833981519152604482015290519081900360640190fd5b610b07816119f4565b50565b60606006600560008481526020019081526020016000206040516020018083805460018160011615610100020316600290048015610b7f5780601f10610b5d576101008083540402835291820191610b7f565b820191906000526020600020905b815481529060010190602001808311610b6b575b505082805460018160011615610100020316600290048015610bd85780601f10610bb6576101008083540402835291820191610bd8565b820191906000526020600020905b815481529060010190602001808311610bc4575b505060408051601f1981840301815291905295945050505050565b600160a060020a031660009081526004602052604090205460ff1690565b8151835114610c90576040805160e560020a62461bcd02815260206004820152602860248201527f455243313135353a2069647320616e6420616d6f756e7473206c656e6774682060448201527f6d69736d61746368000000000000000000000000000000000000000000000000606482015290519081900360840190fd5b600160a060020a0384161515610d16576040805160e560020a62461bcd02815260206004820152602560248201527f455243313135353a207472616e7366657220746f20746865207a65726f20616460448201527f6472657373000000000000000000000000000000000000000000000000000000606482015290519081900360840190fd5b610d1e6119f0565b600160a060020a031685600160a060020a03161480610d495750610d4985610d446119f0565b611491565b1515610dc5576040805160e560020a62461bcd02815260206004820152603260248201527f455243313135353a207472616e736665722063616c6c6572206973206e6f742060448201527f6f776e6572206e6f7220617070726f7665640000000000000000000000000000606482015290519081900360840190fd5b6000610dcf6119f0565b9050610ddf818787878787611a0b565b60005b8451811015610f135760008582815181101515610dfb57fe5b90602001906020020151905060008583815181101515610e1757fe5b602090810290910181015160408051606081018252602a81527f455243313135353a20696e73756666696369656e742062616c616e636520666f818501527f72207472616e736665720000000000000000000000000000000000000000000081830152600086815260028552828120600160a060020a038f168252909452922054909250610eac91839063ffffffff611a1316565b6000838152600260209081526040808320600160a060020a038e811685529252808320939093558a1681522054610ee39082611aad565b6000928352600260209081526040808520600160a060020a038c1686529091529092209190915550600101610de2565b5084600160a060020a031686600160a060020a031682600160a060020a03167f4a39dc06d4c0dbc64b70af90fd698a233a518aa5d07e595d983b8c0526c8f7fb8787604051808060200180602001838103835285818151815260200191508051906020019060200280838360005b83811015610f99578181015183820152602001610f81565b50505050905001838103825284818151815260200191508051906020019060200280838360005b83811015610fd8578181015183820152602001610fc0565b5050505090500194505050505060405180910390a4505050505050565b8051825160609114611077576040805160e560020a62461bcd02815260206004820152602960248201527f455243313135353a206163636f756e747320616e6420696473206c656e67746860448201527f206d69736d617463680000000000000000000000000000000000000000000000606482015290519081900360840190fd5b606083516040519080825280602002602001820160405280156110a4578160200160208202803883390190505b50905060005b845181101561110b576110eb85828151811015156110c457fe5b9060200190602002015185838151811015156110dc57fe5b906020019060200201516109b5565b82828151811015156110f957fe5b602090810290910101526001016110aa565b509392505050565b61111b6119f0565b600160a060020a031661112c6111cf565b600160a060020a031614611178576040805160e560020a62461bcd0281526020600482018190526024820152600080516020611eea833981519152604482015290519081900360640190fd5b60008054604051600160a060020a03909116907f8be0079c531659141344cd1fd0a4f28419497f9722a3daafe3b4186f6b6457e0908390a36000805473ffffffffffffffffffffffffffffffffffffffff19169055565b600054600160a060020a03165b90565b81600160a060020a03166111f16119f0565b600160a060020a03161415611276576040805160e560020a62461bcd02815260206004820152602960248201527f455243313135353a2073657474696e6720617070726f76616c2073746174757360448201527f20666f722073656c660000000000000000000000000000000000000000000000606482015290519081900360840190fd5b80600360006112836119f0565b600160a060020a03908116825260208083019390935260409182016000908120918716808252919093529120805460ff1916921515929092179091556112c76119f0565b6040805184151581529051600160a060020a0392909216917f17307eab39ab6107e8899845ad3d59bd9653f200f220920489ca2b5937696c319181900360200190a35050565b6113156119f0565b600160a060020a03166113266111cf565b600160a060020a0316148061134657506113466113416119f0565b610bf3565b15156113c2576040805160e560020a62461bcd02815260206004820152602960248201527f455243313135353a2063616c6c6572206973206e6f74206f776e6572206e6f7260448201527f20617070726f7665640000000000000000000000000000000000000000000000606482015290519081900360840190fd5b600083815260056020908152604090912082516113e192840190611e51565b506113fe8484846020604051908101604052806000815250611b11565b50505050565b60606005600083815260200190815260200160002060405160200180828054600181600116156101000203166002900480156114775780601f10611455576101008083540402835291820191611477565b820191906000526020600020905b815481529060010190602001808311611463575b505060408051601f19818403018152919052949350505050565b600160a060020a03918216600090815260036020908152604080832093909416825291909152205460ff1690565b6114c76119f0565b600160a060020a03166114d86111cf565b600160a060020a031614611524576040805160e560020a62461bcd0281526020600482018190526024820152600080516020611eea833981519152604482015290519081900360640190fd5b600160a060020a03919091166000908152600460205260409020805460ff1916911515919091179055565b600160a060020a03841615156115d5576040805160e560020a62461bcd02815260206004820152602560248201527f455243313135353a207472616e7366657220746f20746865207a65726f20616460448201527f6472657373000000000000000000000000000000000000000000000000000000606482015290519081900360840190fd5b6115dd6119f0565b600160a060020a031685600160a060020a03161480611603575061160385610d446119f0565b151561167f576040805160e560020a62461bcd02815260206004820152602960248201527f455243313135353a2063616c6c6572206973206e6f74206f776e6572206e6f7260448201527f20617070726f7665640000000000000000000000000000000000000000000000606482015290519081900360840190fd5b60006116896119f0565b90506116a981878761169a88611c51565b6116a388611c51565b87611a0b565b60408051606081018252602a81527f455243313135353a20696e73756666696369656e742062616c616e636520666f6020808301919091527f72207472616e736665720000000000000000000000000000000000000000000082840152600087815260028252838120600160a060020a038b168252909152919091205461173791859063ffffffff611a1316565b6000858152600260209081526040808320600160a060020a038b8116855292528083209390935587168152205461176e9084611aad565b6000858152600260209081526040808320600160a060020a03808b168086529184529382902094909455805188815291820187905280518a8416938616927fc3d58168c5ae7397731d063d5bbf3d657854427343f4c083240f7aacaa2d0f6292908290030190a4505050505050565b6117e56119f0565b600160a060020a03166117f66111cf565b600160a060020a031614611842576040805160e560020a62461bcd0281526020600482018190526024820152600080516020611eea833981519152604482015290519081900360640190fd5b600160a060020a03811615156118c8576040805160e560020a62461bcd02815260206004820152602660248201527f4f776e61626c653a206e6577206f776e657220697320746865207a65726f206160448201527f6464726573730000000000000000000000000000000000000000000000000000606482015290519081900360840190fd5b60008054604051600160a060020a03808516939216917f8be0079c531659141344cd1fd0a4f28419497f9722a3daafe3b4186f6b6457e091a36000805473ffffffffffffffffffffffffffffffffffffffff1916600160a060020a0392909216919091179055565b6119386119f0565b600160a060020a03166119496111cf565b600160a060020a0316148061196457506119646113416119f0565b15156119e0576040805160e560020a62461bcd02815260206004820152602960248201527f455243313135353a2063616c6c6572206973206e6f74206f776e6572206e6f7260448201527f20617070726f7665640000000000000000000000000000000000000000000000606482015290519081900360840190fd5b6119eb838383611c97565b505050565b3390565b8051611a07906006906020840190611e51565b5050565b505050505050565b60008184841115611aa55760405160e560020a62461bcd0281526004018080602001828103825283818151815260200191508051906020019080838360005b83811015611a6a578181015183820152602001611a52565b50505050905090810190601f168015611a975780820380516001836020036101000a031916815260200191505b509250505060405180910390fd5b505050900390565b600082820183811015611b0a576040805160e560020a62461bcd02815260206004820152601b60248201527f536166654d6174683a206164646974696f6e206f766572666c6f770000000000604482015290519081900360640190fd5b9392505050565b600160a060020a0384161515611b97576040805160e560020a62461bcd02815260206004820152602160248201527f455243313135353a206d696e7420746f20746865207a65726f2061646472657360448201527f7300000000000000000000000000000000000000000000000000000000000000606482015290519081900360840190fd5b6000611ba16119f0565b9050611bb38160008761169a88611c51565b6000848152600260209081526040808320600160a060020a0389168452909152902054611be6908463ffffffff611aad16565b6000858152600260209081526040808320600160a060020a03808b16808652918452828520959095558151898152928301889052815190948616927fc3d58168c5ae7397731d063d5bbf3d657854427343f4c083240f7aacaa2d0f6292908290030190a45050505050565b6040805160018082528183019092526060918291906020808301908038833901905050905082816000815181101515611c8657fe5b602090810290910101529050919050565b600160a060020a0383161515611d1d576040805160e560020a62461bcd02815260206004820152602360248201527f455243313135353a206275726e2066726f6d20746865207a65726f206164647260448201527f6573730000000000000000000000000000000000000000000000000000000000606482015290519081900360840190fd5b6000611d276119f0565b9050611d5681856000611d3987611c51565b611d4287611c51565b604080516020810190915260008152611a0b565b60408051606081018252602481527f455243313135353a206275726e20616d6f756e7420657863656564732062616c6020808301919091527f616e63650000000000000000000000000000000000000000000000000000000082840152600086815260028252838120600160a060020a03891682529091529190912054611de491849063ffffffff611a1316565b6000848152600260209081526040808320600160a060020a03808a16808652918452828520959095558151888152928301879052815193949093908616927fc3d58168c5ae7397731d063d5bbf3d657854427343f4c083240f7aacaa2d0f6292908290030190a450505050565b828054600181600116156101000203166002900490600052602060002090601f016020900481019282601f10611e9257805160ff1916838001178555611ebf565b82800160010185558215611ebf579182015b82811115611ebf578251825591602001919060010190611ea4565b50611ecb929150611ecf565b5090565b6111dc91905b80821115611ecb5760008155600101611ed556fe4f776e61626c653a2063616c6c6572206973206e6f7420746865206f776e6572a165627a7a7230582090df84e74641b7a8275235142e1bb144fee134d31c212647532159a2cc4cfa190029",
  "devdoc": {
    "methods": {
      "balanceOf(address,uint256)": {
        "details": "See {IERC1155-balanceOf}.     * Requirements:     * - `account` cannot be the zero address."
      },
      "balanceOfBatch(address[],uint256[])": {
        "details": "See {IERC1155-balanceOfBatch}.     * Requirements:     * - `accounts` and `ids` must have the same length."
      },
      "constructor": {
        "details": "See {_setURI}."
      },
      "isApprovedForAll(address,address)": {
        "details": "See {IERC1155-isApprovedForAll}."
      },
      "owner()": {
        "details": "Returns the address of the current owner."
      },
      "renounceOwnership()": {
        "details": "Leaves the contract without owner. It will not be possible to call `onlyOwner` functions anymore. Can only be called by the current owner.     * NOTE: Renouncing ownership will leave the contract without an owner, thereby removing any functionality that is only available to the owner."
      },
      "safeBatchTransferFrom(address,address,uint256[],uint256[],bytes)": {
        "details": "See {IERC1155-safeBatchTransferFrom}."
      },
      "safeTransferFrom(address,address,uint256,uint256,bytes)": {
        "details": "See {IERC1155-safeTransferFrom}."
      },
      "setApprovalForAll(address,bool)": {
        "details": "See {IERC1155-setApprovalForAll}."
      },
      "supportsInterface(bytes4)": {
        "details": "See {IERC165-supportsInterface}.     * Time complexity O(1), guaranteed to always use less than 30 000 gas."
      },
      "transferOwnership(address)": {
        "details": "Transfers ownership of the contract to a new account (`newOwner`). Can only be called by the current owner."
      }
    }
  },
  "userdoc": {
    "methods": {}
  }
}