{
  "address": "0x6F9eC1C362F33a655c9B15b70DC5e5B291F9D9A3",
  "abi": [
    {
      "constant": true,
      "inputs": [],
      "name": "name",
      "outputs": [
        {
          "name": "",
          "type": "string"
        }
      ],
      "payable": false,
      "stateMutability": "view",
      "type": "function"
    },
    {
      "constant": false,
      "inputs": [
        {
          "name": "spender",
          "type": "address"
        },
        {
          "name": "amount",
          "type": "uint256"
        }
      ],
      "name": "approve",
      "outputs": [
        {
          "name": "",
          "type": "bool"
        }
      ],
      "payable": false,
      "stateMutability": "nonpayable",
      "type": "function"
    },
    {
      "constant": true,
      "inputs": [],
      "name": "totalSupply",
      "outputs": [
        {
          "name": "",
          "type": "uint256"
        }
      ],
      "payable": false,
      "stateMutability": "view",
      "type": "function"
    },
    {
      "constant": false,
      "inputs": [
        {
          "name": "sender",
          "type": "address"
        },
        {
          "name": "recipient",
          "type": "address"
        },
        {
          "name": "amount",
          "type": "uint256"
        }
      ],
      "name": "transferFrom",
      "outputs": [
        {
          "name": "",
          "type": "bool"
        }
      ],
      "payable": false,
      "stateMutability": "nonpayable",
      "type": "function"
    },
    {
      "constant": true,
      "inputs": [],
      "name": "decimals",
      "outputs": [
        {
          "name": "",
          "type": "uint8"
        }
      ],
      "payable": false,
      "stateMutability": "view",
      "type": "function"
    },
    {
      "constant": false,
      "inputs": [
        {
          "name": "spender",
          "type": "address"
        },
        {
          "name": "addedValue",
          "type": "uint256"
        }
      ],
      "name": "increaseAllowance",
      "outputs": [
        {
          "name": "",
          "type": "bool"
        }
      ],
      "payable": false,
      "stateMutability": "nonpayable",
      "type": "function"
    },
    {
      "constant": false,
      "inputs": [],
      "name": "unpause",
      "outputs": [],
      "payable": false,
      "stateMutability": "nonpayable",
      "type": "function"
    },
    {
      "constant": false,
      "inputs": [
        {
          "name": "account",
          "type": "address"
        },
        {
          "name": "amount",
          "type": "uint256"
        }
      ],
      "name": "mint",
      "outputs": [],
      "payable": false,
      "stateMutability": "nonpayable",
      "type": "function"
    },
    {
      "constant": false,
      "inputs": [
        {
          "name": "_newPauser",
          "type": "address"
        }
      ],
      "name": "updatePauser",
      "outputs": [],
      "payable": false,
      "stateMutability": "nonpayable",
      "type": "function"
    },
    {
      "constant": true,
      "inputs": [],
      "name": "paused",
      "outputs": [
        {
          "name": "",
          "type": "bool"
        }
      ],
      "payable": false,
      "stateMutability": "view",
      "type": "function"
    },
    {
      "constant": true,
      "inputs": [
        {
          "name": "account",
          "type": "address"
        }
      ],
      "name": "balanceOf",
      "outputs": [
        {
          "name": "",
          "type": "uint256"
        }
      ],
      "payable": false,
      "stateMutability": "view",
      "type": "function"
    },
    {
      "constant": false,
      "inputs": [],
      "name": "renounceOwnership",
      "outputs": [],
      "payable": false,
      "stateMutability": "nonpayable",
      "type": "function"
    },
    {
      "constant": false,
      "inputs": [],
      "name": "pause",
      "outputs": [],
      "payable": false,
      "stateMutability": "nonpayable",
      "type": "function"
    },
    {
      "constant": true,
      "inputs": [],
      "name": "owner",
      "outputs": [
        {
          "name": "",
          "type": "address"
        }
      ],
      "payable": false,
      "stateMutability": "view",
      "type": "function"
    },
    {
      "constant": true,
      "inputs": [],
      "name": "symbol",
      "outputs": [
        {
          "name": "",
          "type": "string"
        }
      ],
      "payable": false,
      "stateMutability": "view",
      "type": "function"
    },
    {
      "constant": false,
      "inputs": [
        {
          "name": "account",
          "type": "address"
        },
        {
          "name": "amount",
          "type": "uint256"
        }
      ],
      "name": "burn",
      "outputs": [],
      "payable": false,
      "stateMutability": "nonpayable",
      "type": "function"
    },
    {
      "constant": true,
      "inputs": [],
      "name": "pauser",
      "outputs": [
        {
          "name": "",
          "type": "address"
        }
      ],
      "payable": false,
      "stateMutability": "view",
      "type": "function"
    },
    {
      "constant": false,
      "inputs": [
        {
          "name": "spender",
          "type": "address"
        },
        {
          "name": "subtractedValue",
          "type": "uint256"
        }
      ],
      "name": "decreaseAllowance",
      "outputs": [
        {
          "name": "",
          "type": "bool"
        }
      ],
      "payable": false,
      "stateMutability": "nonpayable",
      "type": "function"
    },
    {
      "constant": false,
      "inputs": [
        {
          "name": "recipient",
          "type": "address"
        },
        {
          "name": "amount",
          "type": "uint256"
        }
      ],
      "name": "transfer",
      "outputs": [
        {
          "name": "",
          "type": "bool"
        }
      ],
      "payable": false,
      "stateMutability": "nonpayable",
      "type": "function"
    },
    {
      "constant": true,
      "inputs": [
        {
          "name": "owner",
          "type": "address"
        },
        {
          "name": "spender",
          "type": "address"
        }
      ],
      "name": "allowance",
      "outputs": [
        {
          "name": "",
          "type": "uint256"
        }
      ],
      "payable": false,
      "stateMutability": "view",
      "type": "function"
    },
    {
      "constant": false,
      "inputs": [
        {
          "name": "newOwner",
          "type": "address"
        }
      ],
      "name": "transferOwnership",
      "outputs": [],
      "payable": false,
      "stateMutability": "nonpayable",
      "type": "function"
    },
    {
      "inputs": [
        {
          "name": "name_",
          "type": "string"
        },
        {
          "name": "symbol_",
          "type": "string"
        },
        {
          "name": "initialSupply_",
          "type": "uint256"
        }
      ],
      "payable": false,
      "stateMutability": "nonpayable",
      "type": "constructor"
    },
    {
      "anonymous": false,
      "inputs": [
        {
          "indexed": true,
          "name": "from",
          "type": "address"
        },
        {
          "indexed": true,
          "name": "to",
          "type": "address"
        },
        {
          "indexed": false,
          "name": "value",
          "type": "uint256"
        }
      ],
      "name": "Transfer",
      "type": "event"
    },
    {
      "anonymous": false,
      "inputs": [
        {
          "indexed": true,
          "name": "owner",
          "type": "address"
        },
        {
          "indexed": true,
          "name": "spender",
          "type": "address"
        },
        {
          "indexed": false,
          "name": "value",
          "type": "uint256"
        }
      ],
      "name": "Approval",
      "type": "event"
    },
    {
      "anonymous": false,
      "inputs": [],
      "name": "Pause",
      "type": "event"
    },
    {
      "anonymous": false,
      "inputs": [],
      "name": "Unpause",
      "type": "event"
    },
    {
      "anonymous": false,
      "inputs": [
        {
          "indexed": true,
          "name": "newAddress",
          "type": "address"
        }
      ],
      "name": "PauserChanged",
      "type": "event"
    },
    {
      "anonymous": false,
      "inputs": [
        {
          "indexed": true,
          "name": "previousOwner",
          "type": "address"
        },
        {
          "indexed": true,
          "name": "newOwner",
          "type": "address"
        }
      ],
      "name": "OwnershipTransferred",
      "type": "event"
    }
  ],
  "transactionHash": "0xff7ea8eb28caf03313101f054143e50a06c8789fbb62efd10b4b69743d59ef50",
  "args": [
    "Tether USD",
    "USDT",
    "100000000"
  ],
  "solcInputHash": "12648ce8b5c36ab35902433b1bbf6ca5",
  "bytecode": "0x60806040526001805460a060020a60ff02191690553480156200002157600080fd5b5060405162001b3638038062001b36833981016040908152815160208301519183015190830192919091019060006200006264010000000062000115810204565b60008054600160a060020a031916600160a060020a0383169081178255604051929350917f8be0079c531659141344cd1fd0a4f28419497f9722a3daafe3b4186f6b6457e0908290a3508251620000c1906005906020860190620002b9565b508151620000d7906006906020850190620002b9565b506007805460ff191660121790556200010c620000fc64010000000062000115810204565b826401000000006200011a810204565b5050506200035b565b335b90565b600160a060020a03821615156200019257604080517f08c379a000000000000000000000000000000000000000000000000000000000815260206004820152601f60248201527f45524332303a206d696e7420746f20746865207a65726f206164647265737300604482015290519081900360640190fd5b600454620001af9082640100000000620014236200023d82021704565b600455600160a060020a038216600090815260026020526040902054620001e59082640100000000620014236200023d82021704565b600160a060020a03831660008181526002602090815260408083209490945583518581529351929391927fddf252ad1be2c89b69c2b068fc378daa952ba7f163c4a11628f55a4df523b3ef9281900390910190a35050565b600082820183811015620002b257604080517f08c379a000000000000000000000000000000000000000000000000000000000815260206004820152601b60248201527f536166654d6174683a206164646974696f6e206f766572666c6f770000000000604482015290519081900360640190fd5b9392505050565b828054600181600116156101000203166002900490600052602060002090601f016020900481019282601f10620002fc57805160ff19168380011785556200032c565b828001600101855582156200032c579182015b828111156200032c5782518255916020019190600101906200030f565b506200033a9291506200033e565b5090565b6200011791905b808211156200033a576000815560010162000345565b6117cb806200036b6000396000f30060806040526004361061011c5763ffffffff7c010000000000000000000000000000000000000000000000000000000060003504166306fdde038114610121578063095ea7b3146101ab57806318160ddd146101e357806323b872dd1461020a578063313ce56714610234578063395093511461025f5780633f4ba83a1461028357806340c10f191461029a578063554bab3c146102be5780635c975abb146102df57806370a08231146102f4578063715018a6146103155780638456cb591461032a5780638da5cb5b1461033f57806395d89b41146103705780639dc29fac146103855780639fd0506d146103a9578063a457c2d7146103be578063a9059cbb146103e2578063dd62ed3e14610406578063f2fde38b1461042d575b600080fd5b34801561012d57600080fd5b5061013661044e565b6040805160208082528351818301528351919283929083019185019080838360005b83811015610170578181015183820152602001610158565b50505050905090810190601f16801561019d5780820380516001836020036101000a031916815260200191505b509250505060405180910390f35b3480156101b757600080fd5b506101cf600160a060020a03600435166024356104e4565b604080519115158252519081900360200190f35b3480156101ef57600080fd5b506101f8610552565b60408051918252519081900360200190f35b34801561021657600080fd5b506101cf600160a060020a0360043581169060243516604435610558565b34801561024057600080fd5b50610249610688565b6040805160ff9092168252519081900360200190f35b34801561026b57600080fd5b506101cf600160a060020a0360043516602435610691565b34801561028f57600080fd5b50610298610736565b005b3480156102a657600080fd5b50610298600160a060020a0360043516602435610807565b3480156102ca57600080fd5b50610298600160a060020a03600435166108ca565b3480156102eb57600080fd5b506101cf610a12565b34801561030057600080fd5b506101f8600160a060020a0360043516610a22565b34801561032157600080fd5b50610298610a3d565b34801561033657600080fd5b50610298610af9565b34801561034b57600080fd5b50610354610bd0565b60408051600160a060020a039092168252519081900360200190f35b34801561037c57600080fd5b50610136610bdf565b34801561039157600080fd5b50610298600160a060020a0360043516602435610c40565b3480156103b557600080fd5b50610354610cff565b3480156103ca57600080fd5b506101cf600160a060020a0360043516602435610d0e565b3480156103ee57600080fd5b506101cf600160a060020a0360043516602435610e11565b34801561041257600080fd5b506101f8600160a060020a0360043581169060243516610e76565b34801561043957600080fd5b50610298600160a060020a0360043516610ea1565b60058054604080516020601f60026000196101006001881615020190951694909404938401819004810282018101909252828152606093909290918301828280156104da5780601f106104af576101008083540402835291602001916104da565b820191906000526020600020905b8154815290600101906020018083116104bd57829003601f168201915b5050505050905090565b60015460009060a060020a900460ff1615610537576040805160e560020a62461bcd0281526020600482015260106024820152600080516020611780833981519152604482015290519081900360640190fd5b610549610542610ff4565b8484610ff8565b50600192915050565b60045490565b60015460009060a060020a900460ff16156105ab576040805160e560020a62461bcd0281526020600482015260106024820152600080516020611780833981519152604482015290519081900360640190fd5b6105b6848484611165565b61067e846105c2610ff4565b61067985606060405190810160405280602881526020017f45524332303a207472616e7366657220616d6f756e742065786365656473206181526020017f6c6c6f77616e6365000000000000000000000000000000000000000000000000815250600360008b600160a060020a0316600160a060020a031681526020019081526020016000206000610652610ff4565b600160a060020a03168152602081019190915260400160002054919063ffffffff61138916565b610ff8565b5060019392505050565b60075460ff1690565b60015460009060a060020a900460ff16156106e4576040805160e560020a62461bcd0281526020600482015260106024820152600080516020611780833981519152604482015290519081900360640190fd5b6105496106ef610ff4565b846106798560036000610700610ff4565b600160a060020a03908116825260208083019390935260409182016000908120918c16815292529020549063ffffffff61142316565b600154600160a060020a031633146107be576040805160e560020a62461bcd02815260206004820152602260248201527f5061757361626c653a2063616c6c6572206973206e6f7420746865207061757360448201527f6572000000000000000000000000000000000000000000000000000000000000606482015290519081900360840190fd5b6001805474ff0000000000000000000000000000000000000000191690556040517f7805862f689e2f13df9f062ff482ad3ad112aca9e0847911ed832e158c525b3390600090a1565b61080f610ff4565b600160a060020a0316610820610bd0565b600160a060020a03161461086c576040805160e560020a62461bcd0281526020600482018190526024820152600080516020611760833981519152604482015290519081900360640190fd5b60015460a060020a900460ff16156108bc576040805160e560020a62461bcd0281526020600482015260106024820152600080516020611780833981519152604482015290519081900360640190fd5b6108c68282611487565b5050565b6108d2610ff4565b600160a060020a03166108e3610bd0565b600160a060020a03161461092f576040805160e560020a62461bcd0281526020600482018190526024820152600080516020611760833981519152604482015290519081900360640190fd5b600160a060020a03811615156109b5576040805160e560020a62461bcd02815260206004820152602860248201527f5061757361626c653a206e65772070617573657220697320746865207a65726f60448201527f2061646472657373000000000000000000000000000000000000000000000000606482015290519081900360840190fd5b6001805473ffffffffffffffffffffffffffffffffffffffff1916600160a060020a0383811691909117918290556040519116907fb80482a293ca2e013eda8683c9bd7fc8347cfdaeea5ede58cba46df502c2a60490600090a250565b60015460a060020a900460ff1681565b600160a060020a031660009081526002602052604090205490565b610a45610ff4565b600160a060020a0316610a56610bd0565b600160a060020a031614610aa2576040805160e560020a62461bcd0281526020600482018190526024820152600080516020611760833981519152604482015290519081900360640190fd5b60008054604051600160a060020a03909116907f8be0079c531659141344cd1fd0a4f28419497f9722a3daafe3b4186f6b6457e0908390a36000805473ffffffffffffffffffffffffffffffffffffffff19169055565b600154600160a060020a03163314610b81576040805160e560020a62461bcd02815260206004820152602260248201527f5061757361626c653a2063616c6c6572206973206e6f7420746865207061757360448201527f6572000000000000000000000000000000000000000000000000000000000000606482015290519081900360840190fd5b6001805474ff0000000000000000000000000000000000000000191660a060020a1790556040517f6985a02210a168e66602d3235cb6db0e70f92b3ba4d376a33c0f3d9434bff62590600090a1565b600054600160a060020a031690565b60068054604080516020601f60026000196101006001881615020190951694909404938401819004810282018101909252828152606093909290918301828280156104da5780601f106104af576101008083540402835291602001916104da565b610c48610ff4565b600160a060020a0316610c59610bd0565b600160a060020a031614610ca5576040805160e560020a62461bcd0281526020600482018190526024820152600080516020611760833981519152604482015290519081900360640190fd5b60015460a060020a900460ff1615610cf5576040805160e560020a62461bcd0281526020600482015260106024820152600080516020611780833981519152604482015290519081900360640190fd5b6108c6828261157e565b600154600160a060020a031681565b60015460009060a060020a900460ff1615610d61576040805160e560020a62461bcd0281526020600482015260106024820152600080516020611780833981519152604482015290519081900360640190fd5b610549610d6c610ff4565b8461067985606060405190810160405280602581526020017f45524332303a2064656372656173656420616c6c6f77616e63652062656c6f7781526020017f207a65726f00000000000000000000000000000000000000000000000000000081525060036000610dda610ff4565b600160a060020a03908116825260208083019390935260409182016000908120918d1681529252902054919063ffffffff61138916565b60015460009060a060020a900460ff1615610e64576040805160e560020a62461bcd0281526020600482015260106024820152600080516020611780833981519152604482015290519081900360640190fd5b610549610e6f610ff4565b8484611165565b600160a060020a03918216600090815260036020908152604080832093909416825291909152205490565b610ea9610ff4565b600160a060020a0316610eba610bd0565b600160a060020a031614610f06576040805160e560020a62461bcd0281526020600482018190526024820152600080516020611760833981519152604482015290519081900360640190fd5b600160a060020a0381161515610f8c576040805160e560020a62461bcd02815260206004820152602660248201527f4f776e61626c653a206e6577206f776e657220697320746865207a65726f206160448201527f6464726573730000000000000000000000000000000000000000000000000000606482015290519081900360840190fd5b60008054604051600160a060020a03808516939216917f8be0079c531659141344cd1fd0a4f28419497f9722a3daafe3b4186f6b6457e091a36000805473ffffffffffffffffffffffffffffffffffffffff1916600160a060020a0392909216919091179055565b3390565b600160a060020a038316151561107d576040805160e560020a62461bcd028152602060048201526024808201527f45524332303a20617070726f76652066726f6d20746865207a65726f2061646460448201527f7265737300000000000000000000000000000000000000000000000000000000606482015290519081900360840190fd5b600160a060020a0382161515611103576040805160e560020a62461bcd02815260206004820152602260248201527f45524332303a20617070726f766520746f20746865207a65726f20616464726560448201527f7373000000000000000000000000000000000000000000000000000000000000606482015290519081900360840190fd5b600160a060020a03808416600081815260036020908152604080832094871680845294825291829020859055815185815291517f8c5be1e5ebec7d5bd14f71427d1e84f3dd0314c0f7b2291e5b200ac8c7c3b9259281900390910190a3505050565b600160a060020a03831615156111eb576040805160e560020a62461bcd02815260206004820152602560248201527f45524332303a207472616e736665722066726f6d20746865207a65726f20616460448201527f6472657373000000000000000000000000000000000000000000000000000000606482015290519081900360840190fd5b600160a060020a0382161515611271576040805160e560020a62461bcd02815260206004820152602360248201527f45524332303a207472616e7366657220746f20746865207a65726f206164647260448201527f6573730000000000000000000000000000000000000000000000000000000000606482015290519081900360840190fd5b60408051606081018252602681527f45524332303a207472616e7366657220616d6f756e74206578636565647320626020808301919091527f616c616e6365000000000000000000000000000000000000000000000000000082840152600160a060020a0386166000908152600290915291909120546112f891839063ffffffff61138916565b600160a060020a03808516600090815260026020526040808220939093559084168152205461132d908263ffffffff61142316565b600160a060020a0380841660008181526002602090815260409182902094909455805185815290519193928716927fddf252ad1be2c89b69c2b068fc378daa952ba7f163c4a11628f55a4df523b3ef92918290030190a3505050565b6000818484111561141b5760405160e560020a62461bcd0281526004018080602001828103825283818151815260200191508051906020019080838360005b838110156113e05781810151838201526020016113c8565b50505050905090810190601f16801561140d5780820380516001836020036101000a031916815260200191505b509250505060405180910390fd5b505050900390565b600082820183811015611480576040805160e560020a62461bcd02815260206004820152601b60248201527f536166654d6174683a206164646974696f6e206f766572666c6f770000000000604482015290519081900360640190fd5b9392505050565b600160a060020a03821615156114e7576040805160e560020a62461bcd02815260206004820152601f60248201527f45524332303a206d696e7420746f20746865207a65726f206164647265737300604482015290519081900360640190fd5b6004546114fa908263ffffffff61142316565b600455600160a060020a038216600090815260026020526040902054611526908263ffffffff61142316565b600160a060020a03831660008181526002602090815260408083209490945583518581529351929391927fddf252ad1be2c89b69c2b068fc378daa952ba7f163c4a11628f55a4df523b3ef9281900390910190a35050565b600160a060020a0382161515611604576040805160e560020a62461bcd02815260206004820152602160248201527f45524332303a206275726e2066726f6d20746865207a65726f2061646472657360448201527f7300000000000000000000000000000000000000000000000000000000000000606482015290519081900360840190fd5b60408051606081018252602281527f45524332303a206275726e20616d6f756e7420657863656564732062616c616e6020808301919091527f636500000000000000000000000000000000000000000000000000000000000082840152600160a060020a03851660009081526002909152919091205461168b91839063ffffffff61138916565b600160a060020a0383166000908152600260205260409020556004546116b7908263ffffffff6116ff16565b600455604080518281529051600091600160a060020a038516917fddf252ad1be2c89b69c2b068fc378daa952ba7f163c4a11628f55a4df523b3ef9181900360200190a35050565b600082821115611759576040805160e560020a62461bcd02815260206004820152601e60248201527f536166654d6174683a207375627472616374696f6e206f766572666c6f770000604482015290519081900360640190fd5b5090039056004f776e61626c653a2063616c6c6572206973206e6f7420746865206f776e65725061757361626c653a2070617573656400000000000000000000000000000000a165627a7a723058205fe7f38046e057d90a91c1a46323aedfa1a591782ef216c7d32daf1971b897130029",
  "devdoc": {
    "methods": {
      "allowance(address,address)": {
        "details": "See {IERC20-allowance}."
      },
      "approve(address,uint256)": {
        "details": "See {IERC20-approve}.     * Requirements:     * - `spender` cannot be the zero address."
      },
      "balanceOf(address)": {
        "details": "See {IERC20-balanceOf}."
      },
      "decimals()": {
        "details": "Returns the number of decimals used to get its user representation. For example, if `decimals` equals `2`, a balance of `505` tokens should be displayed to a user as `5,05` (`505 / 10 ** 2`).     * Tokens usually opt for a value of 18, imitating the relationship between Ether and Wei. This is the value {ERC20} uses, unless {_setupDecimals} is called.     * NOTE: This information is only used for _display_ purposes: it in no way affects any of the arithmetic of the contract, including {IERC20-balanceOf} and {IERC20-transfer}."
      },
      "decreaseAllowance(address,uint256)": {
        "details": "Atomically decreases the allowance granted to `spender` by the caller.     * This is an alternative to {approve} that can be used as a mitigation for problems described in {IERC20-approve}.     * Emits an {Approval} event indicating the updated allowance.     * Requirements:     * - `spender` cannot be the zero address. - `spender` must have allowance for the caller of at least `subtractedValue`."
      },
      "increaseAllowance(address,uint256)": {
        "details": "Atomically increases the allowance granted to `spender` by the caller.     * This is an alternative to {approve} that can be used as a mitigation for problems described in {IERC20-approve}.     * Emits an {Approval} event indicating the updated allowance.     * Requirements:     * - `spender` cannot be the zero address."
      },
      "name()": {
        "details": "Returns the name of the token."
      },
      "owner()": {
        "details": "Returns the address of the current owner."
      },
      "pause()": {
        "details": "called by the owner to pause, triggers stopped state"
      },
      "renounceOwnership()": {
        "details": "Leaves the contract without owner. It will not be possible to call `onlyOwner` functions anymore. Can only be called by the current owner.     * NOTE: Renouncing ownership will leave the contract without an owner, thereby removing any functionality that is only available to the owner."
      },
      "symbol()": {
        "details": "Returns the symbol of the token, usually a shorter version of the name."
      },
      "totalSupply()": {
        "details": "See {IERC20-totalSupply}."
      },
      "transfer(address,uint256)": {
        "details": "See {IERC20-transfer}.     * Requirements:     * - `recipient` cannot be the zero address. - the caller must have a balance of at least `amount`."
      },
      "transferFrom(address,address,uint256)": {
        "details": "See {IERC20-transferFrom}.     * Emits an {Approval} event indicating the updated allowance. This is not required by the EIP. See the note at the beginning of {ERC20}.     * Requirements:     * - `sender` and `recipient` cannot be the zero address. - `sender` must have a balance of at least `amount`. - the caller must have allowance for ``sender``'s tokens of at least `amount`."
      },
      "transferOwnership(address)": {
        "details": "Transfers ownership of the contract to a new account (`newOwner`). Can only be called by the current owner."
      },
      "unpause()": {
        "details": "called by the owner to unpause, returns to normal state"
      },
      "updatePauser(address)": {
        "details": "update the pauser role"
      }
    }
  },
  "userdoc": {
    "methods": {}
  }
}