{
  "address": "0xDb3F62d588f80dA9E8d69A8AEFF3488A99793281",
  "abi": [
    {
      "constant": true,
      "inputs": [],
      "name": "name",
      "outputs": [
        {
          "name": "",
          "type": "string"
        }
      ],
      "payable": false,
      "stateMutability": "view",
      "type": "function"
    },
    {
      "constant": true,
      "inputs": [],
      "name": "initialAddressSet",
      "outputs": [
        {
          "name": "",
          "type": "bool"
        }
      ],
      "payable": false,
      "stateMutability": "view",
      "type": "function"
    },
    {
      "constant": false,
      "inputs": [
        {
          "name": "address_",
          "type": "address"
        }
      ],
      "name": "addManager",
      "outputs": [],
      "payable": false,
      "stateMutability": "nonpayable",
      "type": "function"
    },
    {
      "constant": false,
      "inputs": [
        {
          "name": "address_",
          "type": "address"
        }
      ],
      "name": "removerManger",
      "outputs": [],
      "payable": false,
      "stateMutability": "nonpayable",
      "type": "function"
    },
    {
      "constant": false,
      "inputs": [
        {
          "name": "addr",
          "type": "address"
        }
      ],
      "name": "endGrantAuthentication",
      "outputs": [],
      "payable": false,
      "stateMutability": "nonpayable",
      "type": "function"
    },
    {
      "constant": false,
      "inputs": [
        {
          "name": "addr",
          "type": "address"
        }
      ],
      "name": "revokeAuthentication",
      "outputs": [],
      "payable": false,
      "stateMutability": "nonpayable",
      "type": "function"
    },
    {
      "constant": true,
      "inputs": [
        {
          "name": "",
          "type": "address"
        }
      ],
      "name": "pending",
      "outputs": [
        {
          "name": "",
          "type": "uint256"
        }
      ],
      "payable": false,
      "stateMutability": "view",
      "type": "function"
    },
    {
      "constant": true,
      "inputs": [
        {
          "name": "",
          "type": "address"
        }
      ],
      "name": "contracts",
      "outputs": [
        {
          "name": "",
          "type": "bool"
        }
      ],
      "payable": false,
      "stateMutability": "view",
      "type": "function"
    },
    {
      "constant": false,
      "inputs": [],
      "name": "renounceOwnership",
      "outputs": [],
      "payable": false,
      "stateMutability": "nonpayable",
      "type": "function"
    },
    {
      "constant": true,
      "inputs": [],
      "name": "owner",
      "outputs": [
        {
          "name": "",
          "type": "address"
        }
      ],
      "payable": false,
      "stateMutability": "view",
      "type": "function"
    },
    {
      "constant": true,
      "inputs": [],
      "name": "delegateProxyImplementation",
      "outputs": [
        {
          "name": "",
          "type": "address"
        }
      ],
      "payable": false,
      "stateMutability": "view",
      "type": "function"
    },
    {
      "constant": true,
      "inputs": [
        {
          "name": "",
          "type": "address"
        }
      ],
      "name": "proxies",
      "outputs": [
        {
          "name": "",
          "type": "address"
        }
      ],
      "payable": false,
      "stateMutability": "view",
      "type": "function"
    },
    {
      "constant": false,
      "inputs": [
        {
          "name": "addr",
          "type": "address"
        }
      ],
      "name": "startGrantAuthentication",
      "outputs": [],
      "payable": false,
      "stateMutability": "nonpayable",
      "type": "function"
    },
    {
      "constant": false,
      "inputs": [],
      "name": "registerProxy",
      "outputs": [
        {
          "name": "proxy",
          "type": "address"
        }
      ],
      "payable": false,
      "stateMutability": "nonpayable",
      "type": "function"
    },
    {
      "constant": true,
      "inputs": [],
      "name": "DELAY_PERIOD",
      "outputs": [
        {
          "name": "",
          "type": "uint256"
        }
      ],
      "payable": false,
      "stateMutability": "view",
      "type": "function"
    },
    {
      "constant": false,
      "inputs": [
        {
          "name": "authAddress",
          "type": "address"
        }
      ],
      "name": "grantInitialAuthentication",
      "outputs": [],
      "payable": false,
      "stateMutability": "nonpayable",
      "type": "function"
    },
    {
      "constant": false,
      "inputs": [
        {
          "name": "newOwner",
          "type": "address"
        }
      ],
      "name": "transferOwnership",
      "outputs": [],
      "payable": false,
      "stateMutability": "nonpayable",
      "type": "function"
    },
    {
      "constant": true,
      "inputs": [
        {
          "name": "",
          "type": "address"
        }
      ],
      "name": "managers",
      "outputs": [
        {
          "name": "",
          "type": "bool"
        }
      ],
      "payable": false,
      "stateMutability": "view",
      "type": "function"
    },
    {
      "inputs": [],
      "payable": false,
      "stateMutability": "nonpayable",
      "type": "constructor"
    },
    {
      "anonymous": false,
      "inputs": [
        {
          "indexed": true,
          "name": "previousOwner",
          "type": "address"
        }
      ],
      "name": "OwnershipRenounced",
      "type": "event"
    },
    {
      "anonymous": false,
      "inputs": [
        {
          "indexed": true,
          "name": "previousOwner",
          "type": "address"
        },
        {
          "indexed": true,
          "name": "newOwner",
          "type": "address"
        }
      ],
      "name": "OwnershipTransferred",
      "type": "event"
    }
  ],
  "transactionHash": "0x3a756351d304d9b87f9cf6a7d604a966fb59e020b5eea4d38e8f1f8f7b90835a",
  "args": [],
  "solcInputHash": "4d11ef07ea5817c9a0e372ebc7cda4b4",
  "bytecode": "0x6080604052621275006005556007805460ff1916905534801561002157600080fd5b5060008054600160a060020a0319163390811782558152600660205260409020805460ff19166001179055610054610096565b604051809103906000f080158015610070573d6000803e3d6000fd5b5060018054600160a060020a031916600160a060020a03929092169190911790556100a6565b60405161083d8061102c83390190565b610f77806100b56000396000f3006080604052600436106100fb5763ffffffff7c010000000000000000000000000000000000000000000000000000000060003504166306fdde0381146101005780631a86ac4f1461018a5780632d06177a146101b357806331685375146101d657806338b6e407146101f757806353376d1f146102185780635eebea201461023957806369dc9ff31461026c578063715018a61461028d5780638da5cb5b146102a257806397204d8e146102d3578063c4552791146102e8578063d4e8e06314610309578063ddd81f821461032a578063e71a02e11461033f578063ef7f383414610354578063f2fde38b14610375578063fdff9b4d14610396575b600080fd5b34801561010c57600080fd5b506101156103b7565b6040805160208082528351818301528351919283929083019185019080838360005b8381101561014f578181015183820152602001610137565b50505050905090810190601f16801561017c5780820380516001836020036101000a031916815260200191505b509250505060405180910390f35b34801561019657600080fd5b5061019f6103ee565b604080519115158252519081900360200190f35b3480156101bf57600080fd5b506101d4600160a060020a03600435166103f7565b005b3480156101e257600080fd5b506101d4600160a060020a0360043516610432565b34801561020357600080fd5b506101d4600160a060020a0360043516610485565b34801561022457600080fd5b506101d4600160a060020a0360043516610540565b34801561024557600080fd5b5061025a600160a060020a0360043516610578565b60408051918252519081900360200190f35b34801561027857600080fd5b5061019f600160a060020a036004351661058a565b34801561029957600080fd5b506101d461059f565b3480156102ae57600080fd5b506102b761060b565b60408051600160a060020a039092168252519081900360200190f35b3480156102df57600080fd5b506102b761061a565b3480156102f457600080fd5b506102b7600160a060020a0360043516610629565b34801561031557600080fd5b506101d4600160a060020a0360043516610644565b34801561033657600080fd5b506102b76106c1565b34801561034b57600080fd5b5061025a610881565b34801561036057600080fd5b506101d4600160a060020a0360043516610887565b34801561038157600080fd5b506101d4600160a060020a03600435166108e3565b3480156103a257600080fd5b5061019f600160a060020a0360043516610977565b60408051808201909152601d81527f50726f6a6563742057797665726e2050726f7879205265676973747279000000602082015281565b60075460ff1681565b600054600160a060020a0316331461040e57600080fd5b600160a060020a03166000908152600660205260409020805460ff19166001179055565b600054600160a060020a0316331461044957600080fd5b600054600160a060020a038281169116141561046457600080fd5b600160a060020a03166000908152600660205260409020805460ff19169055565b600054600160a060020a0316331461049c57600080fd5b600160a060020a03811660009081526004602052604090205460ff161580156104dc5750600160a060020a03811660009081526003602052604090205415155b80156105045750600554600160a060020a038216600090815260036020526040902054429101105b151561050f57600080fd5b600160a060020a0316600090815260036020908152604080832083905560049091529020805460ff19166001179055565b600054600160a060020a0316331461055757600080fd5b600160a060020a03166000908152600460205260409020805460ff19169055565b60036020526000908152604090205481565b60046020526000908152604090205460ff1681565b600054600160a060020a031633146105b657600080fd5b60008054604051600160a060020a03909116917ff8df31144d9c2f0f6b59d69b8b98abd5459d07f2742c4df920b25aae33c6482091a26000805473ffffffffffffffffffffffffffffffffffffffff19169055565b600054600160a060020a031681565b600154600160a060020a031681565b600260205260009081526040902054600160a060020a031681565b600054600160a060020a0316331461065b57600080fd5b600160a060020a03811660009081526004602052604090205460ff1615801561069a5750600160a060020a038116600090815260036020526040902054155b15156106a557600080fd5b600160a060020a03166000908152600360205260409020429055565b3360009081526006602052604081205460ff1615156001146106e257600080fd5b33600090815260026020526040902054600160a060020a03161561070557600080fd5b600154604080513360248201819052306044808401919091528351808403909101815260649092019092526020810180517bffffffffffffffffffffffffffffffffffffffffffffffffffffffff167f485cc955000000000000000000000000000000000000000000000000000000001790529091600160a060020a03169061078c61098c565b8084600160a060020a0316600160a060020a0316815260200183600160a060020a0316600160a060020a0316815260200180602001828103825283818151815260200191508051906020019080838360005b838110156107f65781810151838201526020016107de565b50505050905090810190601f1680156108235780820380516001836020036101000a031916815260200191505b50945050505050604051809103906000f080158015610846573d6000803e3d6000fd5b50336000908152600260205260409020805473ffffffffffffffffffffffffffffffffffffffff1916600160a060020a038316179055919050565b60055481565b600054600160a060020a0316331461089e57600080fd5b60075460ff16156108ae57600080fd5b6007805460ff199081166001908117909255600160a060020a0390921660009081526004602052604090208054909216179055565b600054600160a060020a031633146108fa57600080fd5b600160a060020a038116151561090f57600080fd5b60008054604051600160a060020a03808516939216917f8be0079c531659141344cd1fd0a4f28419497f9722a3daafe3b4186f6b6457e091a36000805473ffffffffffffffffffffffffffffffffffffffff1916600160a060020a0392909216919091179055565b60066020526000908152604090205460ff1681565b6040516105af8061099d833901905600608060405234801561001057600080fd5b506040516105af3803806105af8339810160409081528151602083015191830151909201610046836401000000006100e0810204565b61005882640100000000610102810204565b81600160a060020a03168160405180828051906020019080838360005b8381101561008d578181015183820152602001610075565b50505050905090810190601f1680156100ba5780820380516001836020036101000a031916815260200191505b50915050600060405180830381855af491505015156100d857600080fd5b505050610165565b60018054600160a060020a031916600160a060020a0392909216919091179055565b600054600160a060020a038281169116141561011d57600080fd5b60008054600160a060020a031916600160a060020a038316908117825560405190917fbc7cd75a20ee27fd9adebab32041f755214dbc6bffa90cc0225b39da2e5c2d3b91a250565b61043b806101746000396000f3006080604052600436106100825763ffffffff7c0100000000000000000000000000000000000000000000000000000000600035041663025313a281146100c85780633659cfe6146100f95780634555d5c91461011c5780634f1ef286146101435780635c60da1b1461019d5780636fde8202146101b2578063f1739cae146101c7575b600061008c6101e8565b9050600160a060020a03811615156100a357600080fd5b60405136600082376000803683855af43d806000843e8180156100c4578184f35b8184fd5b3480156100d457600080fd5b506100dd6101f7565b60408051600160a060020a039092168252519081900360200190f35b34801561010557600080fd5b5061011a600160a060020a0360043516610206565b005b34801561012857600080fd5b5061013161022e565b60408051918252519081900360200190f35b60408051602060046024803582810135601f810185900485028601850190965285855261011a958335600160a060020a03169536956044949193909101919081908401838280828437509497506102339650505050505050565b3480156101a957600080fd5b506100dd6101e8565b3480156101be57600080fd5b506100dd6102dc565b3480156101d357600080fd5b5061011a600160a060020a03600435166102eb565b600054600160a060020a031690565b60006102016102dc565b905090565b61020e6101f7565b600160a060020a0316331461022257600080fd5b61022b81610370565b50565b600290565b61023b6101f7565b600160a060020a0316331461024f57600080fd5b61025882610206565b30600160a060020a03168160405180828051906020019080838360005b8381101561028d578181015183820152602001610275565b50505050905090810190601f1680156102ba5780820380516001836020036101000a031916815260200191505b50915050600060405180830381855af491505015156102d857600080fd5b5050565b600154600160a060020a031690565b6102f36101f7565b600160a060020a0316331461030757600080fd5b600160a060020a038116151561031c57600080fd5b7f5a3e66efaa1e445ebd894728a69d6959842ea1e97bd79b892797106e270efcd96103456101f7565b60408051600160a060020a03928316815291841660208301528051918290030190a161022b816103e0565b600054600160a060020a038281169116141561038b57600080fd5b6000805473ffffffffffffffffffffffffffffffffffffffff1916600160a060020a038316908117825560405190917fbc7cd75a20ee27fd9adebab32041f755214dbc6bffa90cc0225b39da2e5c2d3b91a250565b6001805473ffffffffffffffffffffffffffffffffffffffff1916600160a060020a03929092169190911790555600a165627a7a723058205d2e74b8540011f9fd782d5dbabd454d762d1a5de03b11e8b1fe0992a77294ab0029a165627a7a723058208d9d8ad1a875da7a36f13de43689252984bc480e6148e4613cc4efc4f7684ad1002960806040526001805460a060020a60ff021916905534801561002057600080fd5b5061080d806100306000396000f3006080604052600436106100ae5763ffffffff7c01000000000000000000000000000000000000000000000000000000006000350416631b0f7ba981146100e65780633f801f91146101665780634555d5c9146101d4578063485cc955146101fb5780634c93505f146102225780634f8632ba1461023c5780635c60da1b1461026d57806363d256ce146102825780636fde8202146102975780637b103999146102ac5780638f4ffcb1146102c1575b60408051348152905133917fa419615bc8fda4c87663805ee2a3597a6d71c1d476911d9892f340d965bc7bf1919081900360200190a2005b3480156100f257600080fd5b50604080516020600460443581810135601f8101849004840285018401909552848452610152948235600160a060020a0316946024803560ff16953695946064949201919081908401838280828437509497506103319650505050505050565b604080519115158252519081900360200190f35b34801561017257600080fd5b50604080516020600460443581810135601f81018490048402850184019095528484526101d2948235600160a060020a0316946024803560ff169536959460649492019190819084018382808284375094975061051f9650505050505050565b005b3480156101e057600080fd5b506101e961053a565b60408051918252519081900360200190f35b34801561020757600080fd5b506101d2600160a060020a036004358116906024351661053f565b34801561022e57600080fd5b506101d260043515156105b5565b34801561024857600080fd5b50610251610630565b60408051600160a060020a039092168252519081900360200190f35b34801561027957600080fd5b5061025161063f565b34801561028e57600080fd5b5061015261064e565b3480156102a357600080fd5b5061025161065e565b3480156102b857600080fd5b5061025161066d565b3480156102cd57600080fd5b50604080516020601f6064356004818101359283018490048402850184019095528184526101d294600160a060020a0381358116956024803596604435909316953695608494920191819084018382808284375094975061067c9650505050505050565b600254600090600160a060020a03163314806103f0575060035460a060020a900460ff161580156103f05750600354604080517f69dc9ff30000000000000000000000000000000000000000000000000000000081523360048201529051600160a060020a03909216916369dc9ff3916024808201926020929091908290030181600087803b1580156103c357600080fd5b505af11580156103d7573d6000803e3d6000fd5b505050506040513d60208110156103ed57600080fd5b50515b15156103fb57600080fd5b600083600181111561040957fe5b141561048d5783600160a060020a03168260405180828051906020019080838360005b8381101561044457818101518382015260200161042c565b50505050905090810190601f1680156104715780820380516001836020036101000a031916815260200191505b509150506000604051808303816000865af19150509050610518565b600183600181111561049b57fe5b14156105185783600160a060020a03168260405180828051906020019080838360005b838110156104d65781810151838201526020016104be565b50505050905090810190601f1680156105035780820380516001836020036101000a031916815260200191505b50915050600060405180830381855af4925050505b9392505050565b61052a838383610331565b151561053557600080fd5b505050565b600290565b60015460a060020a900460ff161561055657600080fd5b6001805474ff0000000000000000000000000000000000000000191660a060020a17905560028054600160a060020a0393841673ffffffffffffffffffffffffffffffffffffffff199182161790915560038054929093169116179055565b600254600160a060020a031633146105cc57600080fd5b6003805482151560a060020a810274ff0000000000000000000000000000000000000000199092169190911790915560408051918252517f2165014523a6f4135deffed62d70149aad59b64de5aac51e3abbcbe2a83e2f7e9181900360200190a150565b600254600160a060020a031681565b600054600160a060020a031690565b60035460a060020a900460ff1681565b600154600160a060020a031690565b600354600160a060020a031681565b604080517f23b872dd000000000000000000000000000000000000000000000000000000008152600160a060020a03868116600483015230602483015260448201869052915184928316916323b872dd9160648083019260209291908290030181600087803b1580156106ee57600080fd5b505af1158015610702573d6000803e3d6000fd5b505050506040513d602081101561071857600080fd5b5051151561072557600080fd5b82600160a060020a031685600160a060020a03167fd65b48fd35864b3528d38e44760be5553248f89bf3ff6b06cca57817cc2650bf86856040518083815260200180602001828103825283818151815260200191508051906020019080838360005b8381101561079f578181015183820152602001610787565b50505050905090810190601f1680156107cc5780820380516001836020036101000a031916815260200191505b50935050505060405180910390a350505050505600a165627a7a72305820cbc61f68a5992aaad30e447ea4edd7352f40ce515e185eb003f4a69046ddae970029",
  "devdoc": {
    "methods": {
      "endGrantAuthentication(address)": {
        "details": "ProxyRegistry owner only",
        "params": {
          "addr": "Address to which to grant permissions"
        }
      },
      "grantInitialAuthentication(address)": {
        "details": "No delay, can only be called once - after that the standard registry process with a delay must be used",
        "params": {
          "authAddress": "Address of the contract to grant authentication"
        }
      },
      "registerProxy()": {
        "details": "Must be called by the user which the proxy is for, creates a new AuthenticatedProxy",
        "return": "New AuthenticatedProxy contract"
      },
      "renounceOwnership()": {
        "details": "Allows the current owner to relinquish control of the contract."
      },
      "revokeAuthentication(address)": {
        "details": "ProxyRegistry owner only",
        "params": {
          "addr": "Address of which to revoke permissions"
        }
      },
      "startGrantAuthentication(address)": {
        "details": "ProxyRegistry owner only",
        "params": {
          "addr": "Address to which to grant permissions"
        }
      },
      "transferOwnership(address)": {
        "details": "Allows the current owner to transfer control of the contract to a newOwner.",
        "params": {
          "newOwner": "The address to transfer ownership to."
        }
      }
    }
  },
  "userdoc": {
    "methods": {
      "endGrantAuthentication(address)": {
        "notice": "End the process to nable access for specified contract after delay period has passed."
      },
      "grantInitialAuthentication(address)": {
        "notice": "Grant authentication to the initial Exchange protocol contract"
      },
      "registerProxy()": {
        "notice": "Register a proxy contract with this registry"
      },
      "revokeAuthentication(address)": {
        "notice": "Revoke access for specified contract. Can be done instantly."
      },
      "startGrantAuthentication(address)": {
        "notice": "Start the process to enable access for specified contract. Subject to delay period."
      }
    }
  }
}